{
  "contractName": "VotingSystem",
  "abi": [
    {
      "constant": true,
      "inputs": [],
      "name": "totalVotes",
      "outputs": [
        {
          "name": "",
          "type": "uint256"
        }
      ],
      "payable": false,
      "stateMutability": "view",
      "type": "function"
    },
    {
      "constant": true,
      "inputs": [],
      "name": "votesPerETH",
      "outputs": [
        {
          "name": "",
          "type": "uint256"
        }
      ],
      "payable": false,
      "stateMutability": "view",
      "type": "function"
    },
    {
      "constant": true,
      "inputs": [
        {
          "name": "",
          "type": "bytes32"
        }
      ],
      "name": "votesReceived",
      "outputs": [
        {
          "name": "",
          "type": "uint256"
        }
      ],
      "payable": false,
      "stateMutability": "view",
      "type": "function"
    },
    {
      "constant": true,
      "inputs": [
        {
          "name": "",
          "type": "uint256"
        }
      ],
      "name": "candidateList",
      "outputs": [
        {
          "name": "",
          "type": "bytes32"
        }
      ],
      "payable": false,
      "stateMutability": "view",
      "type": "function"
    },
    {
      "constant": true,
      "inputs": [
        {
          "name": "",
          "type": "address"
        }
      ],
      "name": "voterInfo",
      "outputs": [
        {
          "name": "voterAddress",
          "type": "address"
        },
        {
          "name": "votesAvailable",
          "type": "uint256"
        }
      ],
      "payable": false,
      "stateMutability": "view",
      "type": "function"
    },
    {
      "inputs": [
        {
          "name": "votes",
          "type": "uint256"
        },
        {
          "name": "ETHtoVote",
          "type": "uint256"
        },
        {
          "name": "candidateNames",
          "type": "bytes32[]"
        }
      ],
      "payable": false,
      "stateMutability": "nonpayable",
      "type": "constructor"
    },
    {
      "constant": false,
      "inputs": [],
      "name": "buy",
      "outputs": [
        {
          "name": "",
          "type": "uint256"
        }
      ],
      "payable": true,
      "stateMutability": "payable",
      "type": "function"
    },
    {
      "constant": false,
      "inputs": [
        {
          "name": "voteFor",
          "type": "bytes32"
        },
        {
          "name": "numberOfVotes",
          "type": "uint256"
        }
      ],
      "name": "castVote",
      "outputs": [],
      "payable": false,
      "stateMutability": "nonpayable",
      "type": "function"
    },
    {
      "constant": true,
      "inputs": [
        {
          "name": "candidate",
          "type": "bytes32"
        }
      ],
      "name": "totalVotesFor",
      "outputs": [
        {
          "name": "",
          "type": "uint256"
        }
      ],
      "payable": false,
      "stateMutability": "view",
      "type": "function"
    },
    {
      "constant": true,
      "inputs": [
        {
          "name": "candidate",
          "type": "bytes32"
        }
      ],
      "name": "indexOfCandidate",
      "outputs": [
        {
          "name": "",
          "type": "uint256"
        }
      ],
      "payable": false,
      "stateMutability": "view",
      "type": "function"
    },
    {
      "constant": true,
      "inputs": [
        {
          "name": "user",
          "type": "address"
        }
      ],
      "name": "voterDetails",
      "outputs": [
        {
          "name": "",
          "type": "uint256"
        },
        {
          "name": "",
          "type": "uint256[]"
        }
      ],
      "payable": false,
      "stateMutability": "view",
      "type": "function"
    },
    {
      "constant": false,
      "inputs": [
        {
          "name": "account",
          "type": "address"
        }
      ],
      "name": "transferTo",
      "outputs": [],
      "payable": false,
      "stateMutability": "nonpayable",
      "type": "function"
    },
    {
      "constant": true,
      "inputs": [],
      "name": "allCandidates",
      "outputs": [
        {
          "name": "",
          "type": "bytes32[]"
        }
      ],
      "payable": false,
      "stateMutability": "view",
      "type": "function"
    },
    {
      "constant": true,
      "inputs": [],
      "name": "votesDistributed",
      "outputs": [
        {
          "name": "",
          "type": "uint256"
        }
      ],
      "payable": false,
      "stateMutability": "view",
      "type": "function"
    },
    {
      "constant": true,
      "inputs": [],
      "name": "votesRemaining",
      "outputs": [
        {
          "name": "",
          "type": "uint256"
        }
      ],
      "payable": false,
      "stateMutability": "view",
      "type": "function"
    }
  ],
  "bytecode": "0x6060604052341561000f57600080fd5b604051610d31380380610d31833981016040528080519060200190919080519060200190919080518201919050508060029080519060200190610053929190610071565b508260038190555082600481905550816005819055505050506100e9565b8280548282559060005260206000209081019282156100b3579160200282015b828111156100b2578251829060001916905591602001919060010190610091565b5b5090506100c091906100c4565b5090565b6100e691905b808211156100e25760008160009055506001016100ca565b5090565b90565b610c39806100f86000396000f3006060604052600436106100d0576000357c0100000000000000000000000000000000000000000000000000000000900463ffffffff1680630d15fd77146100d557806313e9da51146100fe578063169bc9d614610127578063174d2221146101505780632f265cf7146101795780635938750d146101b45780637021939f1461024957806375a12d721461028457806381c40715146102b4578063a03fa7e31461031e578063a6f2ae3a14610357578063b13c744b14610375578063cdf58d35146103b4578063ecd098b014610434575b600080fd5b34156100e057600080fd5b6100e861046f565b6040518082815260200191505060405180910390f35b341561010957600080fd5b610111610475565b6040518082815260200191505060405180910390f35b341561013257600080fd5b61013a61047f565b6040518082815260200191505060405180910390f35b341561015b57600080fd5b610163610485565b6040518082815260200191505060405180910390f35b341561018457600080fd5b61019e600480803560001916906020019091905050610493565b6040518082815260200191505060405180910390f35b34156101bf57600080fd5b6101eb600480803573ffffffffffffffffffffffffffffffffffffffff169060200190919050506104b8565b6040518083815260200180602001828103825283818151815260200191508051906020019060200280838360005b83811015610234578082015181840152602081019050610219565b50505050905001935050505060405180910390f35b341561025457600080fd5b61026e6004808035600019169060200190919050506105a0565b6040518082815260200191505060405180910390f35b341561028f57600080fd5b6102b26004808035600019169060200190919080359060200190919050506105b8565b005b34156102bf57600080fd5b6102c761084f565b6040518080602001828103825283818151815260200191508051906020019060200280838360005b8381101561030a5780820151818401526020810190506102ef565b505050509050019250505060405180910390f35b341561032957600080fd5b610355600480803573ffffffffffffffffffffffffffffffffffffffff169060200190919050506108b1565b005b61035f61090b565b6040518082815260200191505060405180910390f35b341561038057600080fd5b6103966004808035906020019091905050610a65565b60405180826000191660001916815260200191505060405180910390f35b34156103bf57600080fd5b6103eb600480803573ffffffffffffffffffffffffffffffffffffffff16906020019091905050610a89565b604051808373ffffffffffffffffffffffffffffffffffffffff1673ffffffffffffffffffffffffffffffffffffffff1681526020018281526020019250505060405180910390f35b341561043f57600080fd5b610459600480803560001916906020019091905050610acd565b6040518082815260200191505060405180910390f35b60035481565b6000600454905090565b60055481565b600060045460035403905090565b6000600160008360001916600019168152602001908152602001600020549050919050565b60006104c2610b94565b6000808473ffffffffffffffffffffffffffffffffffffffff1673ffffffffffffffffffffffffffffffffffffffff168152602001908152602001600020600101546000808573ffffffffffffffffffffffffffffffffffffffff1673ffffffffffffffffffffffffffffffffffffffff1681526020019081526020016000206002018080548060200260200160405190810160405280929190818152602001828054801561059057602002820191906000526020600020905b81548152602001906001019080831161057c575b5050505050905091509150915091565b60016020528060005260406000206000915090505481565b60008060006105c685610acd565b92507fffffffffffffffffffffffffffffffffffffffffffffffffffffffffffffffff83141515156105f757600080fd5b61068f6000803373ffffffffffffffffffffffffffffffffffffffff1673ffffffffffffffffffffffffffffffffffffffff16815260200190815260200160002060020180548060200260200160405190810160405280929190818152602001828054801561068557602002820191906000526020600020905b815481526020019060010190808311610671575b5050505050610b4b565b6000803373ffffffffffffffffffffffffffffffffffffffff1673ffffffffffffffffffffffffffffffffffffffff168152602001908152602001600020600101540391508382101515156106e357600080fd5b60008060003373ffffffffffffffffffffffffffffffffffffffff1673ffffffffffffffffffffffffffffffffffffffff1681526020019081526020016000206002018054905014156107b857600090505b6002805490508110156107b7576000803373ffffffffffffffffffffffffffffffffffffffff1673ffffffffffffffffffffffffffffffffffffffff16815260200190815260200160002060020180548060010182816107959190610ba8565b9160005260206000209001600080909190915055508080600101915050610735565b5b8360016000876000191660001916815260200190815260200160002060008282540192505081905550836000803373ffffffffffffffffffffffffffffffffffffffff1673ffffffffffffffffffffffffffffffffffffffff1681526020019081526020016000206002018481548110151561083057fe5b9060005260206000209001600082825401925050819055505050505050565b610857610bd4565b60028054806020026020016040519081016040528092919081815260200182805480156108a757602002820191906000526020600020905b8154600019168152602001906001019080831161088f575b5050505050905090565b8073ffffffffffffffffffffffffffffffffffffffff166108fc3073ffffffffffffffffffffffffffffffffffffffff16319081150290604051600060405180830381858888f19350505050151561090857600080fd5b50565b6000806005543481151561091b57fe5b049050600454811115151561092f57600080fd5b60036000803373ffffffffffffffffffffffffffffffffffffffff1673ffffffffffffffffffffffffffffffffffffffff1681526020019081526020016000206001015410151561097f57600080fd5b336000803373ffffffffffffffffffffffffffffffffffffffff1673ffffffffffffffffffffffffffffffffffffffff16815260200190815260200160002060000160006101000a81548173ffffffffffffffffffffffffffffffffffffffff021916908373ffffffffffffffffffffffffffffffffffffffff160217905550806000803373ffffffffffffffffffffffffffffffffffffffff1673ffffffffffffffffffffffffffffffffffffffff16815260200190815260200160002060010160008282540192505081905550806004600082825403925050819055508091505090565b600281815481101515610a7457fe5b90600052602060002090016000915090505481565b60006020528060005260406000206000915090508060000160009054906101000a900473ffffffffffffffffffffffffffffffffffffffff16908060010154905082565b600080600090505b600280549050811015610b21578260001916600282815481101515610af657fe5b906000526020600020900154600019161415610b1457809150610b45565b8080600101915050610ad5565b7fffffffffffffffffffffffffffffffffffffffffffffffffffffffffffffffff91505b50919050565b6000806000809150600090505b8351811015610b8a578381815181101515610b6f57fe5b90602001906020020151820191508080600101915050610b58565b8192505050919050565b602060405190810160405280600081525090565b815481835581811511610bcf57818360005260206000209182019101610bce9190610be8565b5b505050565b602060405190810160405280600081525090565b610c0a91905b80821115610c06576000816000905550600101610bee565b5090565b905600a165627a7a72305820365dd2374dd61fd89785273b79c5bc21fa381cc4bf824eee388438f7ab93747b0029",
  "source": "pragma solidity ^0.4.21;\r\n\r\ncontract VotingSystem {\r\n\r\n  struct voter {\r\n  address voterAddress; // Address on the blockchain\r\n  uint votesAvailable; // How many votes this voter can cast\r\n  uint[] votesCastPerCandidate; // Who this voter has already voted for\r\n  }\r\n\r\n  // Variable Declarations\r\n  mapping (address => voter) public voterInfo;\r\n  mapping (bytes32 => uint) public votesReceived; // for each candidate\r\n\r\n  bytes32[] public candidateList;\r\n\r\n  uint public totalVotes;\r\n  uint public votesRemaining;\r\n  uint public votesPerETH;\r\n\r\n  //Constructor\r\n  function VotingSystem(uint votes, uint ETHtoVote, bytes32[] candidateNames) public {\r\n  candidateList = candidateNames; // Can be done in a separate method but this ensures a fixed number of candidates\r\n  totalVotes = votes; // Total number of registered votes\r\n  votesRemaining = votes; // to be reduced as votes are claimed and cast\r\n  votesPerETH = ETHtoVote; // How many votes will be claimed when trading ether\r\n  }\r\n\r\n  // trade Ether for votes - amount to be declared in deployment when itialising contract\r\n  function buy() payable public returns (uint) {\r\n  uint claimVotes = msg.value / votesPerETH;\r\n  require(claimVotes <= votesRemaining);\r\n  // by using the following line we can ensure voters can only by a limited number of tokens:\r\n  require(voterInfo[msg.sender].votesAvailable < 3); // one voter can only cast up to 3 votes\r\n  voterInfo[msg.sender].voterAddress = msg.sender;\r\n  voterInfo[msg.sender].votesAvailable += claimVotes;\r\n  votesRemaining -= claimVotes;\r\n  return claimVotes;\r\n  }\r\n\r\n  // Allow users to cast votes by calling this method\r\n  function castVote(bytes32 voteFor, uint numberOfVotes) public {\r\n  // Variable declarations for candidate and number of tokens\r\n  uint index = indexOfCandidate(voteFor);\r\n  require(index != uint(-1));\r\n\r\n  uint availableVotes = voterInfo[msg.sender].votesAvailable - totalVotesCast(voterInfo[msg.sender].votesCastPerCandidate);\r\n  require (availableVotes >= numberOfVotes);\r\n  if (voterInfo[msg.sender].votesCastPerCandidate.length == 0) {\r\n    for(uint i = 0; i < candidateList.length; i++) {\r\n    voterInfo[msg.sender].votesCastPerCandidate.push(0);\r\n   }\r\n  }\r\n\r\n  votesReceived[voteFor] += numberOfVotes;\r\n  voterInfo[msg.sender].votesCastPerCandidate[index] += numberOfVotes;\r\n  }\r\n\r\n  function totalVotesFor(bytes32 candidate) view public returns (uint) {\r\n  return votesReceived[candidate];\r\n  }\r\n\r\n  function totalVotesCast(uint[] _votesCastPerCandidate) private pure returns (uint) {\r\n  uint totalVotesCast = 0;\r\n  for(uint i = 0; i < _votesCastPerCandidate.length; i++) {\r\n   totalVotesCast += _votesCastPerCandidate[i];\r\n  }\r\n  return totalVotesCast;\r\n  }\r\n\r\n  function indexOfCandidate(bytes32 candidate) view public returns (uint) {\r\n  for(uint i = 0; i < candidateList.length; i++) {\r\n   if (candidateList[i] == candidate) {\r\n    return i;\r\n   }\r\n  }\r\n  return uint(-1);\r\n  }\r\n\r\n  function voterDetails(address user) view public returns (uint, uint[]) {\r\n  return (voterInfo[user].votesAvailable, voterInfo[user].votesCastPerCandidate);\r\n  }\r\n\r\n  function transferTo(address account) public {\r\n  account.transfer(this.balance);\r\n  }\r\n\r\n  function allCandidates() view public returns (bytes32[]) {\r\n  return candidateList;\r\n  }\r\n\r\n  // The following functions are used to populate the front-end\r\n  function votesDistributed() view public returns (uint) {\r\n  return totalVotes - votesRemaining;\r\n  }\r\n\r\n  function votesRemaining() view public returns (uint){\r\n   return votesRemaining;\r\n  }\r\n\r\n\r\n}\r\n",
  "sourcePath": "C:\\Users\\faiza\\Desktop\\VotingSystem\\contracts\\VotingSystem.sol",
  "compiler": {
    "name": "solc",
    "version": "0.4.21+commit.dfe3193c.Emscripten.clang"
  },
  "schemaVersion": "2.0.0",
  "updatedAt": "2018-04-28T21:36:08.316Z"
}